:020000040800F2
:1000000068060020450200084D0200084F02000863
:1000100051020008530200085502000800000000C9
:10002000000000000000000000000000570200086F
:1000300059020008000000005B0200085D02000891
:100040005F0200085F0200085F0200085F0200080C
:100050005F0200085F020008010300081D0300089A
:10006000390300085F0200085F0200085F02000811
:100070005F0200085F0200085F0200085F020008DC
:100080005F0200085F0200085F0200085F020008CC
:100090005F0200085F0200085F0200085F020008BC
:1000A0005F0200085F0200085F0200085F020008AC
:1000B0005F0200085F0200085F0200085F0200089C
:1000C0005F0200085F0200085F0200085F0200088C
:1000D0005F0200085F0200085F0200085F0200087C
:1000E0005F0200085F0200085F0200085F0200086C
:1000F0005F0200085F0200085F0200085F0200085C
:100100005F02000800000000000000005F0200081D
:100110005F0200085F0200085F0200086903000830
:100120005F0200085F0200085F0200085F0200082B
:100130005F0200085F0200080000000000000000ED
:100140005F0200085F0200085F0200080000000074
:10015000000000000000000000000000000000009F
:100160005F0200085F0200085F0200085F020008EB
:100170005F0200085F0200085F0200085F020008DB
:100180005F0200085F02000800000000000000009D
:100190005F02000800F002F800F044F814A696E8A8
:1001A000000CB244B344DA4501D100F03BF8BAE8A0
:1001B0000F000FA696E83000A5EB040504EB060738
:1001C000AAEB0704A7F101074FEA15154FEA34140B
:1001D000A4F10104AC4201D300F024F813F0010FA4
:1001E00018BFFB1A43F0010300F001F8DBE71847E2
:1001F000E8040000F8040000704700000023002419
:1002000000250026103A28BF78C1FBD8520728BF26
:1002100030C148BF0B6070471FB500F04FFA1FBDDB
:1002200010B510BD00F031F81146FFF7F5FF00F0F2
:10023000D3F800F04FF803B4FFF7F2FF03BC00F06F
:1002400057F800000948804709480047FEE7FEE7E5
:10025000FEE7FEE7FEE7FEE7FEE7FEE7FEE7FEE776
:1002600004480549054A064B70470000550300083D
:100270009501000868000020680600206802002040
:1002800068020020704770477047754600F02CF8F0
:10029000AE4605006946534620F00700854618B073
:1002A00020B5FFF7DDFFBDE820404FF000064FF01E
:1002B00000074FF000084FF0000BAC46ACE8C00957
:1002C000ACE8C009ACE8C009ACE8C00921F00701FE
:1002D0008D46704710B50446AFF300802046BDE858
:1002E0001040FFF7A8BF0000004870470000002042
:1002F00001491820ABBEFEE726000200704700004F
:1003000080B5002000F0D0F940F21441C4F20101A0
:10031000086840F00100086080BD000080B540F230
:10032000FF1000F0C1F940F21441C4F20101086865
:1003300040F00200086080BD80B540F2FF3000F060
:10034000B3F940F21441C4F20101086840F004001E
:10035000086080BD4EF68851CEF20001086840F476
:10036000700008607047000040F26001C2F20001B6
:10037000086801300860704781B08DF803009DF96E
:10038000030000280ED4FFE79DF9031001F01F02BF
:10039000012090404A094EF20011CEF2000141F8CE
:1003A0002200FFE701B0704781B08DF803009DF98E
:1003B000030000280ED4FFE79DF9031001F01F028F
:1003C000012090404A094EF20011CEF2000141F89E
:1003D0002200FFE701B0704780B584B00020039091
:1003E000402001904FF47A71029100F05FF801987B
:1003F00072B600F00DF8029800F03CF900F092F8A7
:1004000000F0C8F800F0FEF862B6FFE7FEE7000073
:1004100081B0009041F21401C4F20201086840F476
:10042000003008602021C4F60001086840F0007028
:1004300008604FF09041086840F40050086041F2B5
:100440001C01C4F20201086840F00200086040F29A
:100450000042C4F20002106840F06000106040F2F8
:100460001841C4F20001086840F06000086010689C
:1004700040F080001060086840F00800086040F21A
:100480002041C4F20001086840F0010008600098B3
:1004900040F22841C4F20001086040F22C41C4F24D
:1004A000000140F2FF30086001B0704780B584B0B1
:1004B0000390029141F21C01C4F20201086840F06D
:1004C00020000860039841F22841C4F2000108604E
:1004D00002980399B0FBF1F041F22C41C4F2000103
:1004E000086040F26001C2F200010020086041F2A1
:1004F0000041C4F200010191086840F080000860EA
:1005000041F20C41C4F20001086840F001000860AB
:100510003720FFF731FF0199086840F001000860BB
:1005200004B080BD80B541F21401C4F20201086834
:1005300040F40020086040F60001C4F6000108689D
:1005400020F00300086041F21801C4F202010868BB
:1005500040F0010008600821C4F20101086820F0A1
:100560000F000860086840F00200086040F2004197
:10057000C4F20101086840F00100086040F20C413B
:10058000C4F20101086840F0010008600620FFF78E
:100590000BFF80BD80B541F21401C4F2020108686E
:1005A00040F40020086040F60001C4F6000108682D
:1005B00020F00C00086041F21801C4F20201086842
:1005C00040F0010008600821C4F20101086820F031
:1005D000F0000860086840F02000086040F2004128
:1005E000C4F20101086840F00200086040F20C41CA
:1005F000C4F20101086840F0020008600720FFF71C
:10060000D3FE80BD80B541F21401C4F20201086836
:1006100040F40020086040F60001C4F600010868BC
:1006200020F03000086041F21801C4F202010868AD
:1006300040F0010008600821C4F20101086820F4BC
:1006400070600860086840F40070086040F2004183
:10065000C4F20101086840F00400086040F20C4157
:10066000C4F20101086840F0040008600820FFF7A8
:100670009BFE80BD81B00090009840F23441C4F2EE
:100680000001086040F21441C4F20001086840F023
:100690000100086040F20041C4F20001086840F027
:1006A0000100086001B0704781B00090009840F2EE
:1006B0003441C4F20001086001B07047F1EE100A45
:1006C0004FF6FF71C0F2C03120EA010040F04070E7
:1006D000E1EE100A70470000E80600080000002064
:0806E00068060000FC0100089F
:040000050800019559
:00000001FF
