:020000040800F2
:1000000068060020450200084D0200084F02000863
:1000100051020008530200085502000800000000C9
:10002000000000000000000000000000570200086F
:1000300059020008000000005B0200085D02000891
:100040005F0200085F0200085F0200085F0200080C
:100050005F0200085F0200085503000881030008E2
:10006000AD030008D90300085F0200085F02000822
:100070005F0200085F0200085F0200085F020008DC
:100080005F0200085F020008010300085F02000829
:100090005F0200085F0200085F0200085F020008BC
:1000A0005F0200085F0200085F0200085F020008AC
:1000B0005F0200085F0200085F0200085F0200089C
:1000C0005F0200085F0200085F0200085F0200088C
:1000D0005F0200085F0200085F0200085F0200087C
:1000E0005F0200085F0200085F0200085F0200086C
:1000F0005F0200085F0200085F0200085F0200085C
:100100005F02000800000000000000005F0200081D
:100110005F0200085F0200085F0200083504000863
:100120005F0200085F0200085F0200085F0200082B
:100130005F0200085F0200080000000000000000ED
:100140005F0200085F0200085F0200080000000074
:10015000000000000000000000000000000000009F
:100160005F0200085F0200085F0200085F020008EB
:100170005F0200085F0200085F0200085F020008DB
:100180005F0200085F02000800000000000000009D
:100190005F02000800F002F800F044F814A696E8A8
:1001A000000CB244B344DA4501D100F03BF8BAE8A0
:1001B0000F000FA696E83000A5EB040504EB060738
:1001C000AAEB0704A7F101074FEA15154FEA34140B
:1001D000A4F10104AC4201D300F024F813F0010FA4
:1001E00018BFFB1A43F0010300F001F8DBE71847E2
:1001F00010070000200700007047000000230024C3
:1002000000250026103A28BF78C1FBD8520728BF26
:1002100030C148BF0B6070471FB500F063FB1FBDC6
:1002200010B510BD00F031F81146FFF7F5FF00F0F2
:1002300093F900F04FF803B4FFF7F2FF03BC00F0AE
:1002400057F800000948804709480047FEE7FEE7E5
:10025000FEE7FEE7FEE7FEE7FEE7FEE7FEE7FEE776
:1002600004480549054A064B704700002104000870
:100270009501000868000020680600206802002040
:1002800068020020704770477047754600F02CF8F0
:10029000AE4605006946534620F00700854618B073
:1002A00020B5FFF7DDFFBDE820404FF000064FF01E
:1002B00000074FF000084FF0000BAC46ACE8C00957
:1002C000ACE8C009ACE8C009ACE8C00921F00701FE
:1002D0008D46704710B50446AFF300802046BDE858
:1002E0001040FFF7A8BF0000004870470000002042
:1002F00001491820ABBEFEE726000200704700004F
:1003000080B54FF0A0400068C00770B1FFE708213A
:10031000C5F20001086840F0040008604FF0A041F9
:10032000086840F001000860FFE74FF0A040006857
:10033000400700280DD5FFE74020C5F20000006807
:1003400000F0C6FA4FF0A041086840F004000860D1
:10035000FFE780BD80B540F26400C2F20000007883
:1003600028B9FFE740F2FF3000F0B2FAFFE740F2B1
:100370001441C4F20101086840F00100086080BD2A
:1003800080B540F26400C2F20000007828B9FFE7AF
:100390004FF4007000F09CFAFFE740F21441C4F201
:1003A0000101086840F00200086080BD80B540F29D
:1003B0006400C2F20000007820B9FFE7002000F0DE
:1003C00087FAFFE740F21441C4F20101086840F0E7
:1003D0000400086080BD000080B540F26400C2F2F5
:1003E0000000007848B9FFE700F040FA40F26401ED
:1003F000C2F200010120087008E000F06DF840F240
:100400006401C2F2000100200870FFE740F21441CD
:10041000C4F20101086840F00800086080BD0000D7
:100420004EF68851CEF20001086840F47000086072
:100430007047000040F26001C2F20001086801301C
:100440000860704781B08DF803009DF90300002813
:100450000ED4FFE79DF9031001F01F020120904028
:100460004A094EF20011CEF2000141F82200FFE7E6
:1004700001B0704781B08DF803009DF9030000289A
:100480000ED4FFE79DF9031001F01F0201209040F8
:100490004A094EF20011CEF2000141F82200FFE7B6
:1004A00001B070470821C5F20001086820F0010082
:1004B0000860086820F080400860086840F000404C
:1004C0000860FFE70820C5F200000068C00F08B10F
:1004D000FFE7F7E7704700000820C5F2000000685A
:1004E0004007002812D5FFE70821C5F2000108687F
:1004F00040F010000860FFE70820C5F20000006827
:10050000C006002801D5FFE7F6E7FFE70821C5F29E
:100510000001086840F002000860704741F21401D1
:10052000C4F20201086840F4003008604FF09041C6
:10053000086840F0030008600C21C5F2000108685B
:1005400040F4005008603021C5F20001086840F016
:10055000400008607047000080B582B00020019024
:1005600072B6402000F04EF84FF4FA7000F096F9A1
:1005700000F00CF800F094F800F0CAF800F000F970
:1005800000F036F962B6FFE7FEE7000080B582B002
:1005900041F21401C4F20201086840F08050086082
:1005A0000821C5F20001086820F040500860086882
:1005B00040F08050086000200190FFE7019850282B
:1005C00005DCFFE7FFE7019801300190F6E740F214
:1005D0000831C5F20001086840F480300860FFF778
:1005E00061FF00200090FFE70098042805DCFFE78A
:1005F000FFE7009801300090F6E7FFF78FFF02B0A9
:1006000080BD000081B0009041F21401C4F20201EB
:10061000086840F4003008602021C4F60001086832
:1006200040F0007008604FF09041086840F40050BE
:10063000086041F21C01C4F20201086840F00200A7
:10064000086040F20042C4F20002106840F060000E
:10065000106040F21841C4F20001086840F06000E8
:100660000860106840F080001060086840F00800E2
:10067000086040F22041C4F20001086840F0010027
:100680000860009840F22841C4F20001086040F27E
:100690002C41C4F2000140F2FF30086001B0704705
:1006A00080B541F21401C4F20201086840F4002050
:1006B000086040F60001C4F60001086820F003005D
:1006C000086041F21801C4F20201086840F001001C
:1006D00008600821C4F20101086820F00F000860DA
:1006E000086840F00200086040F20041C4F20101D5
:1006F000086840F00100086040F20C41C4F20101BA
:10070000086840F0010008600620FFF7B3FE80BDD6
:1007100080B541F21401C4F20201086840F40020DF
:10072000086040F60001C4F60001086820F00C00E3
:10073000086041F21801C4F20201086840F00100AB
:1007400008600821C4F20101086820F0F000086088
:10075000086840F02000086040F20041C4F2010146
:10076000086840F00200086040F20C41C4F2010148
:10077000086840F0020008600720FFF77BFE80BD9C
:1007800080B541F21401C4F20201086840F400206F
:10079000086040F60001C4F60001086820F030004F
:1007A000086041F21801C4F20201086840F001003B
:1007B00008600821C4F20101086820F47060086034
:1007C000086840F40070086040F20041C4F2010182
:1007D000086840F00400086040F20C41C4F20101D6
:1007E000086840F0040008600820FFF743FE80BD61
:1007F00080B540F26401C2F200010020087041F2AD
:100800001401C4F20201086840F40020086040F6B8
:100810000001C4F60001086820F0C000086041F241
:100820001801C4F20201086840F0010008600821C4
:10083000C4F20101086820F470400860086840F4C0
:100840000050086040F20041C4F20101086840F025
:100850000800086040F20C41C4F20101086840F051
:10086000080008600920FFF705FE80BD80B504215F
:10087000C5F20001086840F001000860086840F017
:10088000040008601220FFF7DDFD0821C5F2000119
:10089000086840F00100086080BD000081B0009051
:1008A000009840F23441C4F20001086040F2144163
:1008B000C4F20001086840F00100086040F2004105
:1008C000C4F20001086840F00100086001B0704700
:1008D00081B00090009840F23441C4F200010860F9
:1008E00001B07047F1EE100A4FF6FF71C0F2C0314F
:1008F00020EA010040F04070E1EE100A704700006D
:10090000100900080000002068060000FC01000833
:0400000508000245A8
:00000001FF
